:020000040800F2
:10000000E0050020C1010008AF1A00082D17000804
:10001000AD1A0008F1020008751B0008000000007E
:10002000000000000000000000000000B31A0008FB
:10003000F302000800000000B11A0008D90100080E
:10004000DB010008DB010008DB010008DB01000820
:10005000DB010008DB010008DB010008DB01000810
:10006000DB010008DB010008DB010008DB01000800
:10007000DB010008DB010008DB010008DB010008F0
:10008000DB010008DB010008DB010008DB010008E0
:10009000DB010008DB010008DB010008DB010008D0
:1000A000DB010008DB010008DB010008DB010008C0
:1000B000DB010008DB010008DB010008DB010008B0
:1000C000DB010008DB010008DB010008DB010008A0
:1000D000DB010008DB010008DB010008DB01000890
:1000E000DB010008DB010008DB010008DB01000880
:1000F000DB010008DB010008DB010008DB01000870
:10010000DB010008DB010008DB010008DB0100085F
:10011000DB010008DB010008DB010008DB0100084F
:10012000DB010008DB010008DB010008DB0100083F
:10013000DB010008DB010008DB010008DB0100082F
:10014000DB010008DB010008DB010008DB0100081F
:10015000DB010008DB010008DB010008DB0100080F
:10016000DB010008DB010008DB010008DB010008FF
:10017000DB010008DB010008DB01000800000000D3
:10018000DB010008DB010008DB010008DB010008DF
:10019000DB010008DB010008DB010008DB010008CF
:1001A000DB010008DB010008DB010008DFF80CD0F0
:1001B00000F08CF800480047B51B0008E00500205F
:1001C0000648804706480047FEE7FEE7FEE7FEE7F1
:1001D000FEE7FEE7FEE7FEE7FEE7FEE7591B000845
:1001E000AD0100082DE9F05F0546002092469B46D0
:1001F00088460646814640241BE02846414647463D
:10020000224600F053F853465A46C01A914110D383
:1002100011461846224600F03AF82D1A67EB0108FD
:100220004F4622460120002100F031F817EB00096B
:100230004E41201EA4F10104DFDC484631462A4627
:100240004346BDE8F09F40EA01039B0703D009E065
:1002500008C9121F08C0042AFAD203E011F8013BB2
:1002600000F8013B521EF9D27047D2B201E000F80B
:10027000012B491EFBD270470022F6E710B513464A
:100280000A4604461946FFF7F0FF204610BD202A13
:1002900004DB203A00FA02F1002070479140C2F1DD
:1002A000200320FA03F3194390407047202A04DB0F
:1002B000203A21FA02F00021704721FA02F3D040DF
:1002C000C2F120029140084319467047064C074D81
:1002D00006E0E06840F0010394E807009847103416
:1002E000AC42F6D3FFF766FF181C0008381C000864
:1002F000FEE7704730B5D1E901231A43D1E9033550
:100300002B431A434B690C681A438B691A43D1E992
:100310000735012C496A046807D01A432A436FF352
:100320000E040A43224302600AE024F4F8442B43FB
:1003300021430B43416803606FF30E010A4342609F
:10034000002030BDF0B56FF00F05D1E9003405EBAA
:1003500004145B1E23432E018C682F0306EB042438
:1003600023434FEA054C0C8A8E8ACD68097E4FF0F4
:100370007F4E07EB04440CEB06560EEB0161012A9D
:100380000CD082683F1107EB05352B4323433343E1
:1003900002F070420B43134383600FE08768084A02
:1003A00017402A03A2F580523243C5683A432343DB
:1003B00005F070450B432B438260C3600020F0BD05
:1003C000FF0F0FFF70B590F83820012A24D00126C6
:1003D00080F83860022280F8392000EB0112148C7A
:1003E000D369183243EA04451E4C0A2B16D0092B58
:1003F00014D0137B45EA03630029016813D0CD694B
:10040000A5431D43CD6103681168196151680A292C
:100410001BD0092919D01DE0022070BDD36803F05C
:100420007F432B43E8E74D6AA5431D434D620368B4
:100430001168996151680A2901D009290AD1D16846
:10044000026821F07F41916204E0D168026821F0E6
:100450007F41116280F83960002180F83810084629
:1004600070BD00000F0003FF70B5040004D094F8C5
:100470003900002510B106E0012070BD84F8385025
:10048000204600F01FF8022084F839002068016837
:10049000626821F44031114301602068416BA26819
:1004A00021F00701114341632068016CE2686FF39A
:1004B0000D0111430164E563012084F83900002037
:1004C00070BD000008B500680649884208D106489A
:1004D000016841F400010160006800F40000009030
:1004E00008BD000000B00240303802402DE9F04164
:1004F00086B014216846FFF7BFFE2B48016800292B
:100500004FD14FF00108C0F800802848002401684E
:1005100041F0010101600068022500F00100059032
:100520004FF63F00CDE9000502AA03260C2782E81A
:10053000D00069461E4800F047F802AA694682E8E2
:10054000D000CDE900851B4800F03EF848F233109A
:10055000CDE9000502AA694682E8D000164800F0FD
:1005600033F84FF68370CDE9000502AA694682E8A8
:10057000D000124800F028F84CF20370CDE90005D5
:1005800002AA694682E8D0000D4800F01DF86020FC
:10059000CDE9000502AA694682E8D000094800F0CA
:1005A00013F806B0BDE8F0810000002038380240A2
:1005B00000140240000802400018024000100240EF
:1005C000000C0240000402402DE9F84F00224FF0D9
:1005D000010803254FF00F0E0B6808FA02F42340C0
:1005E000A3426ED14E68012E05D0022E03D0112EEB
:1005F00001D0122E12D186684FEA420C05FA0CF790
:10060000BE43CF6807FA0CF7374387604668A643B6
:100610000C79C4F30014944034434460C668570016
:1006200005FA07FC8C6826EA0C06BC403443C4601B
:100630004C68022C01D0122C13D1D40800EB840496
:10064000A346D4F8209054074FEAD46A0EFA0AF66B
:1006500029EA06090E6906FA0AF646EA0906CBF8FF
:10066000206004680E7924EA0C0406F00306BE40FC
:10067000264306604C68E4006FD53B4C266846F480
:1006800080462660246822F0030604F48044009427
:10069000364C3444A446D4F808489607360F0EFA70
:1006A00006F7BC43324FB84201D100272EE0314F4C
:1006B000B84201D1012729E02F4FB84202D10227C9
:1006C00024E04AE02D4FB84201D103271EE02C4F11
:1006D000B84201D1042719E02A4FB84201D10527B9
:1006E00014E0294FB84201D106270FE0274FB84246
:1006F00001D107270AE0264FB84201D1082705E0BB
:10070000244FB84201D1092700E00A27B740274308
:10071000CCF80878204E34684F689C43FF0300D51E
:100720001C4334601C4E361D34684F689C43BF0325
:1007300000D51C433460184E083634684F689C431B
:10074000FF0200D51C433460134E0C3634684F68EA
:100750009C43BF0200D51C433460521C102AFFF496
:100760003BAFBDE8F88F0000443802400030014044
:10077000000002400004024000080240000C024059
:10078000001002400014024000180240001C024009
:100790000020024000240240003C014001488068E3
:1007A000704700000800002090F83D20202A01D06A
:1007B00002207047242280F83D200268136823F04D
:1007C000010313600268536A23F010035362026846
:1007D000536A0B43536201680A6842F001020A60DF
:1007E000202180F83D100020704790F83D20202AFD
:1007F00001D002207047242280F83D20026813684F
:1008000023F00103136003685A6A22F00F020A43BF
:1008100091B2596201680A6842F001020A6020211F
:1008200080F83D100020704770B5040025D094F882
:100830003D00002520B984F83C50204600F0B8F86F
:10084000242084F83D002068016821F00101016046
:100850002068016841F4004101602068016821F4CA
:100860000041016000F0C6FC4D4A6168914201D828
:100870004C4900E04C49884201D2012070BD4B49EF
:100880002368B0FBF1F15E6826F03F060E435E6020
:100890006368934206D94FF4967359434FF47A73C1
:1008A000B1FBF3F12368491C1E6A26F03F06314371
:1008B00019626168914210D84900401EB0FBF1F204
:1008C000521CC2F30B02042A01D2042022E0B0FB26
:1008D000F1F0401CC0F30B001CE0A268F2B301EB86
:1008E000C10303EB0116431EB3FBF6F35B1C43F499
:1008F00080431B0549D092B301EBC10202EB011109
:10090000401EB0FBF1F0401CC0F30B0040F48040EF
:1009100040F400402168CA694CF6FF739A431043C3
:10092000C861D4E9071001432068026822F0C002C0
:1009300011430160D4E9030101432068826848F251
:10094000FF339A4311438160D4E9050108432168CC
:10095000CA6822F0FF021043C86001E00EE016E012
:100960002068016841F0010101602564202084F8BD
:100970003D00256384F83E50002070BD01EB410628
:10098000431EB3FBF6F35B1CB3E70120C2E701EBA8
:100990004101401EB0FBF1F0401CC0F30B00B7E773
:1009A000A086010080841E0000093D0040420F0027
:1009B000F0B587B0044614216846FFF75DFC1A497C
:1009C000206888422DD11948016841F00401016076
:1009D000016801F004010591016841F00101016025
:1009E0000068122400F0010005904FF4007001250A
:1009F000032604278DE8F10069460D48FFF7E4FD62
:100A000028028DE8F10069460A48FFF7DDFD074836
:100A10001030016841F400010160006800F400003A
:100A2000059007B0F0BD0000005C00403038024087
:100A300000080240000002400B4810B5016841F474
:100A400000710160016841F480610160016841F456
:100A500080710160032000F0BFF9002000F006F86B
:100A600000F082F9002010BD003C024070B50D4D31
:100A700004464FF47A712878B1FBF0F00A4909680E
:100A8000B1FBF0F000F03EFE48B9102C07D2002276
:100A90002146501E00F080F900206C6070BD0120DE
:100AA00070BD000008000020140000202DE9F04176
:100AB000044690F8A00016460F4601281DD00125D7
:100AC00084F8A050022084F8A10006EB860000EB19
:100AD000C60004EB800034223830FFF7B4FB324606
:100AE0003946204600F023FE2068456284F8A15074
:100AF000002084F8A000BDE8F0810220FBE70000A0
:100B000070B5040004D094F8A100002510B106E0EF
:100B1000012070BD84F8A050204600F06BF8022040
:100B200084F8A1002068816921F070418161D4E9D5
:100B300001010843D4E903121143084321688A697B
:100B40001043886121688A68294802408A60A18A26
:100B50000A0421688B68A669334313438B602168BC
:100B6000CA680240CA60A18B0B042168CA68266A61
:100B700032431A43CA6021680A6902400A61A18CA3
:100B800022680B041169A66A314319431161216877
:100B90004A6902404A61A08D010420684269236BC2
:100BA0001A430A43426194F835002168020294F81E
:100BB0003600CB6A03F07F43CB622168CB6A94F89E
:100BC000346042EA004033430343CB622068416B08
:100BD00041F0060141632068816941F001018161B2
:100BE000C4F8A450012084F8A100002070BD0000CA
:100BF00000F800F02DE9F04186B004461421684663
:100C0000FFF73AFB5049206888427CD14F480024C6
:100C1000016841F080610160006800F0806005902B
:100C20004A481438016841F020010160016801F070
:100C300020010591016841F001010160016801F0A6
:100C400001010591016841F002010160016801F0B4
:100C500002010591016841F040010160016801F065
:100C600040010591016841F004010160016801F053
:100C700004010591016841F0080101600068022546
:100C800000F0080005904FF480600090CDE9015419
:100C90000E26CDE9034669462D48FFF795FC41F63F
:100CA00058000090CDE90154CDE903466946294832
:100CB000FFF78AFC03200090CDE901540927DFF8F3
:100CC0009880CDE9034769464046FFF77DFC4FF425
:100CD00070600090CDE90154CDE903466946404675
:100CE000FFF772FC4FF40C600090CDE90154DFF87F
:100CF0006C80CDE9034669464046FFF765FC4FF43A
:100D00009860009000E01CE0CDE90154CDE9034675
:100D100069461348FFF758FC48200090CDE901547C
:100D2000CDE9034669460F48FFF74EFC4FF4A0504B
:100D30000090CDE90154CDE9034769464046FFF7ED
:100D400043FC06B0BDE8F081006801404438024031
:100D5000001402400000024000040240001802405B
:100D600000080240000C02400A4808B5016841F43E
:100D700080410160006800F4804000900548001F39
:100D8000016841F080510160006800F080500090DF
:100D900008BD000044380240F0B40E4B1B680C46FE
:100DA000C3F30223C3F10705042D00D90425191D3F
:100DB000072901D2002300E0DB1E012606FA05F117
:100DC000491E214099409E40761E16403143F0BC9A
:100DD00000F0D1BE0CED00E0064900F00702086803
:100DE0004FF6FF03184040EA0220034A1043086010
:100DF000704700000CED00E00000FA052DE9F84313
:100E00001748016841F0805101600068154F00F0FB
:100E10008050012600903E64FFF7C0FC05464FF469
:100E20007A78114C05E000BFFFF7B8FC401B404545
:100E30000DD86068C003F7D57E64FFF7AFFC0546A8
:100E4000464607E0FFF7AAFC401BB04202D9032048
:100E5000BDE8F88360688003F4D50020F8E700005F
:100E60004038024000000E42007000402DE9F84F6B
:100E700004460068DFF824A2894F8A4DC1074FF06D
:100E800001084FF0000603D1810701D4400648D580
:100E9000CAF86860FFF782FC814605E0FFF77EFC38
:100EA000A0EB090002287DD828680001F6D420783C
:100EB000C1077D4805D06168227A890141EA027143
:100EC00001602178890711D501686268237B92014E
:100ED000C1F3027142EA036242EA017101603968BA
:100EE000E26921F01F01521E114339602178490641
:100EF00008D56168227B890141EA0261227A41EAD0
:100F000002710160CAF86880FFF748FC814605E07D
:100F1000FFF744FCA0EB0900022843D82868000131
:100F2000F6D52068410701D400074ED5CAF8706095
:100F3000FFF734FC814605E0FFF730FCA0EB090029
:100F400002282FD82868C0438000F5D520784107B3
:100F5000564814D501682269237D9201C1F30271BC
:100F600042EA036242EA017101603968226A6FF065
:100F7000FF0321F4F85103EB022211433960217879
:100F8000090712D501682269C1F30361920142EA9F
:100F90000161227E41EA027101603868616A20F4D1
:100FA000403000E051E008433860CAF87080FFF735
:100FB000F5FB074605E000BFFFF7F0FBC01B02286A
:100FC00043D82868C0438000F6D42078800653D5E3
:100FD00034484030016841F0805101600068344D70
:100FE00000F080500090286840F480702860FFF77F
:100FF000D5FB074605E000BFFFF7D0FBC01B02286A
:1010000023D82868C005F7D5274D143D286810F46B
:10101000407020D0218D01F4407181421BD028689E
:1010200020F440712348C0F80080066029602868D9
:10103000C00710D0FFF7B2FB064641F2883707E041
:10104000FFF7ACFB801BB84202D90320BDE8F88F44
:1010500028688007F4D5A16A1248C1F3012208303C
:10106000032A13D0016821F4F81101602868218D4A
:10107000C1F30B01084328602078C00604D50E494F
:1010800094F82C00C1F8E0010020DFE702680B4B68
:1010900022F4F81219400A430260E7E700004742D1
:1010A0008C380240003802408438024088380240C0
:1010B00000700040400E474200104742FFFCFF0F07
:1010C0002DE9F0470E46050065D0DFF81481D8F809
:1010D0000000F7B200F00F00B04207D288F80070AD
:1010E000D8F8000000F00F00B04254D128683D4C01
:1010F000810712D5400703D5206840F4E0502060F6
:101100002878000703D5206840F4604020602068FC
:10111000A96820F0F000084320602878C0072DD08F
:10112000304968680839012812D0022813D00328F2
:1011300011D00968890700292DDA216821F00301FF
:1011400001432160FFF72AFB814641F2883A0EE015
:1011500009688903EFE709688901ECE7FFF71EFBDF
:10116000A0EB0901514502D90320BDE8F0872068B2
:10117000696800F00C00B0EB810FEFD1D8F80010D7
:10118000404601F00F01B14207D90770006800F036
:101190000F00B04201D00120E7E72878400705D5CD
:1011A0002068E96820F4E0500843206028780007B0
:1011B00006D52068296920F4604040EAC10020601B
:1011C00000F028F82168084AC1F30311515CC840B7
:1011D0000649086006480068FFF748FC0020C4E79D
:1011E000003C024008380240001C000814000020A7
:1011F0000C0000200448054900680968044AC1F34E
:101200008221515CC8407047140000200838024019
:10121000101C0008154810B5006810F00C021448A6
:1012200013D04110042A0FD0082A0ED10F4C241FCE
:101230002268236802F03F025B0207D52068C0F3F2
:101240008810A0FB010106E0084610BD2168C1F32B
:101250008811A1FB00010023FEF7C4FF2168C1F340
:101260000141491C4900B0FBF1F010BD08380240B3
:101270000024F4002DE9F84F040076D02078DFF840
:1012800038A3CE4DC00749D0DAF800105046C1F35C
:101290008101012908D00068C0F3810002280AD129
:1012A000281D0068400206D52868800336D560688E
:1012B0000028E2D032E06068B0F5803F10D0B0F591
:1012C000A02F286810D020F480302860286820F4EF
:1012D000802028606068A0B1FFF760FA06460CE045
:1012E000286840F48030F4E740F480202860F7E775
:1012F000FFF754FA801B642873D828688003F7D559
:101300000CE0FFF74BFA064605E000BFFFF746FA90
:10131000801B6428F0D828688003F7D42078DFF891
:10132000A08280074FF000093ED5DAF80010504641
:1013300011F00C0F09D00068C0F3810002280BD116
:101340009D48001F0068400206D42868800715D514
:10135000E068012809D111E0E068B8B10120C8F8BF
:101360000000FFF71BFA064605E020E1FFF716FA3A
:10137000801B0228C0D828688007F7D52868216913
:1013800020F0F80040EAC10028600DE0C8F80090A5
:10139000FFF704FA064604E0FFF700FA801B022874
:1013A0001FD828688007F7D42078000722D5824EFE
:1013B000844861696C3671B101210160FFF7EEF973
:1013C000074604E0FFF7EAF9C01B022809D8306895
:1013D0008007F7D50EE0C0F80090FFF7DFF9074669
:1013E00005E082E0FFF7DAF9C01B02287DD83068FB
:1013F0008007F7D42078400768D5DFF8BCB1002714
:101400000BF1380BDBF80000C0000BD4DBF8001048
:1014100041F08051CBF80010DBF80000012700F00C
:1014200080500090684E3068C00510D4306840F499
:1014300080703060FFF7B2F9009005E0FFF7AEF979
:101440000099401A022850D83068C005F6D55A4E87
:10145000A068683601280FD00528306810D020F029
:1014600001003060306820F004003060A068B8B13E
:10147000FFF794F900900FE0306840F00100F4E7C6
:1014800040F004003060F7E7FFF788F90099411A4F
:1014900041F28830814266D830688007F4D50EE08A
:1014A000FFF77CF9009007E0FFF778F90099411AFF
:1014B00041F28830814256D830688007F4D42FB189
:1014C000DBF8001021F08051CBF80010A069D0B3F8
:1014D000DAF800205146C2F38102022A4AD00228DB
:1014E000484607D0C8F8600000E03CE0FFF756F936
:1014F00004463BE04746C8F86000FFF74FF9064650
:1015000005E000BFFFF74AF9801B02282BD82868A6
:101510008001F7D4D4E907010843A16A2B4A49089E
:1015200002EB0141626A41EA8211084394F82C10EF
:1015300040EA01612048001F016001203866FFF782
:101540002DF9044605E034E0FFF728F9001B0228D6
:1015500009D828688001F7D52BE000BFFFF71EF9F6
:10156000001B022802D90320BDE8F88F28688001FB
:10157000F4D41EE00128F7D00868E26900F4800185
:10158000914214D1226A00F03F0191420FD147F6F7
:10159000C071626A0140914209D1A26A00F44031EF
:1015A000914204D1E16A00F07060884201D00120CC
:1015B000DAE70020D8E7000008380240003802408F
:1015C00000004742800E4742007000400000FFFFCD
:1015D00070B50D46040003D094F82C0010B107E05C
:1015E000012070BD002084F82D00204600F011F885
:1015F000022084F82C00211D2068FEF77BFED4E930
:1016000000022946FEF79EFE012084F82C000020EF
:1016100070BDFEF76BBF70B5040005D00025A56254
:1016200094F8510010B106E0012070BD84F85050CC
:10163000204600F031F8022084F85100206801684B
:1016400021F040010160D4E901010843D4E903120B
:101650001143084361690843218B01F40071084379
:10166000E1690843216A0843A16A084321680860C8
:10167000A069042101EA1040616A084321684860BA
:101680002068C16921F40061C1616565012084F8A9
:101690005100002070BD000010B586B00446142132
:1016A0006846FEF7E9FD14492068884221D11348B5
:1016B0000021026842F480120260006800F4801089
:1016C00005900E481438026842F02002026000685B
:1016D00000F0200005904FF4607000900220CDE9EA
:1016E0000101032003900520049069460448FEF799
:1016F0006BFF06B010BD00000050014044380240AE
:101700000014024010B5401EB0F1807F01D30120CB
:1017100010BD4FF0E02460610F21601700F02BFA3C
:101720000020A06107202061002010BDFEE7F0B579
:1017300003688C88DD68C5F30B452C442504882498
:1017400004EBC2141E5906F470461E5103680F685C
:10175000DE68C6F30B46761C3E442E431E510468D9
:101760008B89E568C5F30A052B441D048C2303EB24
:10177000C213E65806F47046E65004688F68E668BF
:10178000C6F30A06761C3E442E43E65094230468B2
:1017900003EBC213E55825F00705E55005680C6911
:1017A000EC5091F831300C7E1F0226069C2405680F
:1017B00004EBC21491F8323055F804C04FF0000C1D
:1017C00045F804C091F8305046EA03433D431D43B9
:1017D00003681D519823046803EBC213E55825F0F4
:1017E000FF05E55005684C69EC50A023046803EB45
:1017F000C213E55840F20776B543E550D1E90745F5
:101800002C430568EC50AC23046803EBC213E55885
:1018100044F803C005684C6AEC500B698BB3012B8C
:1018200032D0042B32D0022B30D0032B2ED0072BFA
:101830002CD00123B024056804EBC2142E5906F005
:10184000E0262E51D1E90065AD1B0E8D5D435E4350
:10185000ED1C45EA064305682B51B423046803EBED
:10186000C213E5586FF30A05E5500468C96AE150F0
:101870000068842101EBC211425842F0010242503B
:10188000F0BDFFE70423D5E70323D3E70223D1E725
:1018900000B587B01C216846FEF7EEFC10480F49E2
:1018A000002201600121C0E901120421C160102160
:1018B0004023C0E904138023C0E906320262426279
:1018C0008262009101910291039104910591069128
:1018D0006946FFF77DFE07B000BD0000400100A093
:1018E000AC010020214808B5016841F00401016005
:1018F000016801F004010091016841F020010160DC
:10190000016801F020010091016841F0800101604F
:10191000016801F080010091016841F0010101605E
:10192000016801F001010091016841F002010160CC
:10193000016801F002010091016841F0400101607D
:10194000016801F040010091016841F0100101605F
:10195000016801F010010091016841F00801016087
:10196000006800F00800009008BD00003038024018
:101970000E4810B50C4901600D49416000214FF43B
:1019800080428160C0E9031241618161C1610162ED
:10199000FEF74AFF00210548FEF706FFBDE81040AC
:1019A00000210248FEF721BF005C004058000020E3
:1019B000A086010070B59AB034216846FEF75CFC41
:1019C00034210DA8FEF758FC2A4829490024C0E913
:1019D000001484600721C460C0E9044103218161CF
:1019E0000E210525C0E907154FF4A7714162F521C5
:1019F00081624FF4AA71C162F721016380F834401B
:101A000080F8354080F83640FFF77AF80194029468
:101A10004FF48066CDE90646039404940094CDE922
:101A200008548DF8304005948DF831400A940B9499
:101A30008DF83240002269460E48FFF737F80D94C2
:101A40000E940F94109411941294CDE91346CDE99D
:101A500015548DF864408DF86540179418948DF8EE
:101A6000664001220DA90348FFF720F81AB070BDA7
:101A700000680140AC0000200B480A494FF4007296
:101A800001604FF48271416000218160C160016199
:101A9000C0E90512C1610162416281620A21C1622D
:101AA000FFF7B9BD0050014054010020FEE7704728
:101AB0007047704770B59EB030216846FEF7DCFB7A
:101AC000142118A8FEF7D8FB30210CA8FEF7D4FB90
:101AD0001F480025016841F080510160006800F056
:101AE00080501D901B48016841F44041016000682E
:101AF000022400F440401D90012000900004019059
:101B00008001CDE90640082608964FF4B470CDE96F
:101B1000090403200B906846FFF7ACFBFFF76EF952
:101B200018A90F2081E831004FF4A0501B90E0026B
:101B30001C90052118A8FFF7C3FA4FF4D87015952B
:101B400010900C9612940CA8FFF790F91EB070BD7F
:101B500040380240007000400548016841F47001BF
:101B6000016003494FF00060803908607047000051
:101B700088ED00E0FEE70907090E002804DB00F10C
:101B8000E02080F80014704700F00F0000F1E02022
:101B900080F8141D704702E008C8121F08C1002A0F
:101BA000FAD170477047002001E001C1121F002ADE
:101BB000FBD17047FEF740FFFFF77CFFFFF792FE77
:101BC0000E480D49022201600021C0E90112C160E6
:101BD000C0E90A1201634163FEF746FC0121074890
:101BE000FEF7F0FBFFF754FEFFF7C2FEFFF7E2FE41
:101BF000FFF742FFFEE7000000B00240180000209F
:101C000000000000000000000102030406070809AC
:101C10000000000001020304381C0008000000203E
:101C200018000000961B0008501C00081800002037
:101C3000C8050000A61B000800000000000000000E
:101C40000100000010000000000000000024F4006B
:04000005080001AD41
:00000001FF
