:020000040800F2
:10000000F0040020C101000867160008251500084B
:1000100065160008F5020008DB1800080000000063
:100020000000000000000000000000006B16000847
:100030002503000800000000691600086D1600087E
:10004000DB010008DB010008DB010008DB01000820
:10005000DB010008DB010008DB010008DB01000810
:10006000DB010008DB010008DB010008DB01000800
:10007000DB010008DB010008DB010008DB010008F0
:10008000DB010008DB010008DB010008DB010008E0
:10009000F9020008DB010008DB010008DB010008B1
:1000A000DB010008DB010008DB010008DB010008C0
:1000B000DB010008DB01000849170008DB0100082C
:1000C000DB010008DB010008DB010008DB010008A0
:1000D000DB010008DB010008DB010008DB01000890
:1000E000DB010008DB010008DB010008DB01000880
:1000F000DB010008DB010008DB010008DB01000870
:10010000DB010008DB010008DB010008DB0100085F
:10011000DB010008DB010008DB010008DB0100084F
:10012000DB010008DB010008DB010008DB0100083F
:10013000DB010008DB010008DB010008DB0100082F
:10014000DB010008DB010008DB010008DB0100081F
:10015000DB010008DB010008DB010008DB0100080F
:10016000DB010008DB010008DB010008DB010008FF
:10017000DB010008DB010008DB01000800000000D3
:10018000DB010008DB010008DB010008DB010008DF
:10019000DB010008DB010008DB010008DB010008CF
:1001A000DB010008DB010008DB010008DFF80CD0F0
:1001B00000F08EF8004800471D190008F0040020E8
:1001C0000648804706480047FEE7FEE7FEE7FEE7F1
:1001D000FEE7FEE7FEE7FEE7FEE7FEE7F5160008AE
:1001E000AD0100082DE9F05F0546002092469B46D0
:1001F00088460646814640241BE02846414647463D
:10020000224600F054F853465A46C01A914110D382
:1002100011461846224600F03BF82D1A67EB0108FC
:100220004F4622460120002100F032F817EB00096A
:100230004E41201EA4F10104DFDC484631462A4627
:100240004346BDE8F09F00000649074A086850434E
:1002500043F23902104408604008704701490860C1
:1002600070470000240000206D4EC641D2B201E06C
:1002700000F8012B491EFBD270470022F6E710B5AB
:1002800013460A4604461946FFF7F0FF204610BD04
:10029000202A04DB203A00FA02F100207047914046
:1002A000C2F1200320FA03F3194390407047202A3B
:1002B00004DB203A21FA02F00021704721FA02F310
:1002C000D040C2F120029140084319467047000017
:1002D000064C074D06E0E06840F0010394E8070093
:1002E00098471034AC42F6D3FFF764FFA419000816
:1002F000C4190008FEE7000010B5074B074A0021AB
:10030000074800F0FCF808B100F00DF8BDE8104017
:10031000034800F07EB900000C000020D00000204F
:100320002800002070477047F0B590F8205004680E
:10033000A468012D05D0022D03D0416A41F480212B
:1003400053E014F0406F01D1E5004BD5C4F30164D4
:10035000022C03D9416A41F4000146E00125A54081
:100360001D608D684FF4C0739DB1CE6835434E68F3
:1003700045EAC605066803EB0417F5514FF4C2754C
:10038000076805EB04150E697E51097D012905D02A
:1003900009E00E88CD6845EA4655EBE701684E59FD
:1003A00046F480764E511179D2F805504FF4C67656
:1003B00041EA0525016806EB04168D511178D2F843
:1003C00001204FF4C47541EA0221026805EB0415CF
:1003D0005151006803EB0411425842F001024250AF
:1003E0000020F0BD416A41F4001141620120F0BDDE
:1003F00010B590F82020012A07D0022A05D0416AC2
:1004000041F480214162012010BD3B48D0F8002218
:1004100042F00102C0F80022D0F8002222F47C52FF
:10042000C0F80022D0F800224B6A42EA0322C0F84A
:1004300000220A7D02F01F0301229A40D0F81C32EC
:100440009343C0F81C32CB69B3B9D0F80C32934354
:10045000C0F80C328C894B6864F31F434C6900EB85
:10046000C404C4F840320C890B6864F31F434C6920
:1004700000EBC404C4F84432CB69012B16D1D0F888
:100480000C321343C0F80C320C884B6864F31F43E2
:100490004C6900EBC404C4F840320C89CB6864F3A7
:1004A0001F434C6900EBC404C4F844328B69002B31
:1004B000D0F804320ED01343C0F804320B69002B7D
:1004C000D0F8143208D01343C0F81432096A012955
:1004D00004D008E09343EFE79343F5E7D0F81C120C
:1004E0001143C0F81C12D0F8001221F00101C0F82D
:1004F0000012002010BD000000640040704730B5BD
:1005000090F82040012C05D0022C03D0416A41F420
:1005100080215DE00468002955D02469A40754D0E7
:100520004FF4D874056804EB01142D5915F0040537
:10053000956005682D594ED0ED08556005682C5919
:10054000C4F34004D4604FF4DA74056804EB01147A
:100550002D5905F00F05156105682D59C5F30725BF
:10056000956105682C59240C54614FF4DC720468C1
:1005700002EB0112A4581C700468A458240A5C7091
:100580000468A458240C9C700468A258120EDA70F7
:100590004FF4DE72046802EB0112A4581C71046867
:1005A000A458240A5C710468A458240C9C71046843
:1005B000A258120EDA71006881B1016941F0200180
:1005C0000161002030BDE468A8E7416A41F40011F0
:1005D0004162012030BD6D0D1560AFE7C16841F08B
:1005E0002001C160EDE70246002092F820100129A9
:1005F00001D002290CD111688A68520100D501206E
:100600008A68120100D5401C8968C90000D5401CC9
:1006100070472DE9F05F0546006800244669D0F870
:1006200004908768D0F80CB0D0F810A0D0F81880EB
:10063000F10748D0F90714D001218160B80703D52C
:10064000284600F0E2F90CE0780702D54FF4006488
:1006500007E0380702D54FF4805402E0284600F046
:10066000D3F9F80516D529684FF480708860B8056D
:1006700003D5284600F0CBF90CE0780502D544F408
:10068000005407E0380502D544F4804402E02846CF
:1006900000F0BCF9F80316D529684FF48030886063
:1006A000B80303D5284600F0B4F90CE0780302D56E
:1006B00044F4004407E0380302D544F4803402E0F7
:1006C000284600F0A5F9300707D55FEACB6004D5CE
:1006D0002968102044F40074C86070074FF00807C0
:1006E00007D55FEA0B7004D52868C760284600F07C
:1006F00059F9B00706D52868C068800702D0284697
:1007000000F051F9700607D55FEACA6004D5296880
:10071000102044F480640861B00607D55FEA0A70CF
:1007200004D528680761284600F03EF9F00606D592
:1007300028680069800702D0284600F036F9B00327
:1007400008D55FEAC96005D52968102048602846A9
:1007500000F02CF9F00307D55FEA097004D528688A
:100760004760284600F056F9300446D55FEA4970E4
:1007700040D5F00504D55FEAC87001D044F001040B
:10078000B00504D55FEA887001D544F00204700515
:1007900004D55FEA487001D544F00404300529D53A
:1007A00018F0700F26D008F07000402815D006DC35
:1007B000102809D020280AD0302816D10AE0502865
:1007C0000ED0602811D10EE044F008040DE044F092
:1007D00010040AE044F0200407E044F0400404E080
:1007E00044F0800401E044F480742868816921F0B9
:1007F00070018161296804204860002C05D0686A76
:10080000204368622846FFF779FEBDE8F09F70B587
:10081000040003D094F8200010B104E0012070BD62
:10082000204600F081F82068016821F00201016093
:1008300000F0DEF90546052604E000F0D9F9401B7A
:100840000A2811D8206840688007F6D4206801681B
:1008500041F00101016000F0CBF905460BE000F02A
:10086000C7F9401B0A2806D9606A40F4003060626C
:1008700084F82060D2E720684068C007EFD0207E6F
:100880000128206801683DD021F080010160607E70
:1008900001282068016838D021F040010160A07E65
:1008A00001282068016833D021F020010160E07E3A
:1008B0000128206801682ED041F010010160207FDE
:1008C00001282068016829D021F008010160607FBB
:1008D00001282068016824D021F004010160D4E9D6
:1008E00002010843D4E90412114308436168491E18
:1008F00008432168C86100206062012084F820005C
:10090000002070BD41F08001C0E741F04001C5E723
:1009100041F02001CAE721F01001CFE741F00801C2
:10092000D4E741F00401D9E710B586B0044614219C
:100930006846FFF7A2FC18492068884229D1174869
:100940000021026842F000720260006800F000704E
:10095000059012481038026842F0010202600068F7
:1009600000F0010005904FF4C05000900220CDE946
:10097000010103200390092004906946084800F013
:100980004BF800221146142000F0A0F9142000F0CA
:100990008FF906B010BD00000064004040380240EE
:1009A0000000024070477047704770477047000072
:1009B00070B5044690F82000012804D0606A40F425
:1009C0000020606218E0022084F82000206801689E
:1009D00021F00101016000F00BF905460EE000BFB7
:1009E00000F006F9401B0A2808D9606A40F400307C
:1009F0006062052084F82000012070BD20684068F6
:100A0000C007EDD1606270BD704770477047704796
:100A100070477047704700002DE9F84FDFF890B13C
:100A200000224FF001084FF0030A4FF00F090BF1BD
:100A3000040E00BF0B6808FA02F42340A3426ED1F3
:100A40004D68022D01D0122D0ED1D50800EB850C7A
:100A5000DCF820505607F70E09FA07F6B5430E6981
:100A6000BE402E43CCF82060066855000F790AFA84
:100A700005FC07F0030726EA0C06AF403743076082
:100A80004E68012E05D0022E03D0112E01D0122E59
:100A90000ED18768CE6827EA0C07AE403E438660D9
:100AA0004668A6430C79C4F3001494403443446070
:100AB000C4688E6824EA0C04AE402643C6604C68C5
:100AC000E4006FD53B4C256845F4804525602468DB
:100AD00022F0030504F480440094374C2E19D6F814
:100AE000084895072F0F09FA07F5AC43334DA84284
:100AF00001D100252EE0324DA84201D1012529E087
:100B0000304DA84201D1022524E02F4DA84201D149
:100B100003251FE02D4DA84202D104251AE041E033
:100B20002B4DA84201D1052514E02A4DA84201D140
:100B300006250FE0284DA84201D107250AE0274DE0
:100B4000A84201D1082505E0254DA84201D109257B
:100B500000E00A25BD402543C6F80858DBF80040F0
:100B60005D464E689C43F60300D51C432C60DEF8BE
:100B7000004075464E689C43B60300D51C432C606C
:100B80000B4D08352C684E689C43F60200D51C437B
:100B90002C60074D0C352C684E689C43B60200D57E
:100BA0001C432C60521C102AFFF444AFBDE8F88FA0
:100BB000003C014044380240003001400000024047
:100BC0000004024000080240000C024000100240F5
:100BD0000014024000180240001C024000200240A5
:100BE000002402400AB1816170470904FBE700005C
:100BF00001488068704700001400002002488168A6
:100C00000278114481607047140000200B4810B531
:100C1000016841F400710160016841F48061016084
:100C2000016841F480710160032000F06FF800203A
:100C300000F006F800F024F8002010BD003C02404F
:100C400070B50D4D04464FF47A712878B1FBF0F081
:100C50000A490968B1FBF0F000F0C0FA48B9102C5D
:100C600007D200222146501E00F030F800206C60B0
:100C700070BD012070BD0000140000202000002085
:100C80000A4808B5016841F480410160006800F439
:100C9000804000900548001F016841F080510160CC
:100CA000006800F08050009008BD00004438024009
:100CB000002809DB00F01F0201219140400980005B
:100CC00000F1E020C0F8001170470000F0B40E4BB6
:100CD0001B680C46C3F30223C3F10705042D00D99A
:100CE0000425191D072901D2002300E0DB1E01267F
:100CF00006FA05F1491E214099409E40761E164095
:100D00003143F0BC00F0EABD0CED00E0064900F014
:100D1000070208684FF6FF03184040EA0220034A22
:100D200010430860704700000CED00E00000FA0579
:100D30002DE9F0470E46050065D0DFF81481D8F89C
:100D40000000F7B200F00F00B04207D288F8007040
:100D5000D8F8000000F00F00B04254D128683D4C94
:100D6000810712D5400703D5206840F4E050206089
:100D70002878000703D5206840F460402060206890
:100D8000A96820F0F000084320602878C0072DD023
:100D9000304968680839012812D0022813D0032886
:100DA00011D00968890700292DDA216821F0030193
:100DB00001432160FFF71CFF814641F2883A0EE0B3
:100DC00009688903EFE709688901ECE7FFF710FF7D
:100DD000A0EB0901514502D90320BDE8F087206846
:100DE000696800F00C00B0EB810FEFD1D8F800106B
:100DF000404601F00F01B14207D90770006800F0CA
:100E00000F00B04201D00120E7E72878400705D560
:100E10002068E96820F4E050084320602878000743
:100E200006D52068296920F4604040EAC1002060AE
:100E300000F016F82168084AC1F30311515CC8405C
:100E4000064908600020FFF7FBFE0020C5E7000010
:100E5000003C02400838024094190008200000209D
:100E6000154810B5006810F00C02144813D041105A
:100E7000042A0FD0082A0ED10F4C241F22682368A1
:100E800002F03F025B0207D52068C0F38810A0FB88
:100E9000010106E0084610BD2168C1F38811A1FBDD
:100EA00000010023FFF79EF92168C1F30141491CAD
:100EB0004900B0FBF1F010BD083802400024F400F6
:100EC0002DE9F84F050076D02878DFF8F8B2BE4C4F
:100ED000C00749D0DBF800105846C1F38101012951
:100EE00008D00068C0F3810002280AD1201D0068E4
:100EF000400206D52068800336D568680028E2D015
:100F000032E06868B0F5803F10D0B0F5A02F2068BF
:100F100010D020F480302060206820F480202060F1
:100F20006868A0B1FFF764FE06460CE0206840F454
:100F30008030F4E740F480202060F7E7FFF758FEA8
:100F4000801B642873D820688003F7D50CE0FFF776
:100F50004FFE064605E000BFFFF74AFE801B6428EF
:100F6000F0D820688003F7D42878DFF86082800703
:100F70004FF000093ED5DBF80010584611F00C0F79
:100F800009D00068C0F3810002280BD18D48001FF2
:100F90000068400206D42068800715D5E86801285B
:100FA00009D111E0E868B8B10120C8F80000FFF7E6
:100FB0001FFE064605E002E1FFF71AFE801B02282D
:100FC000C0D820688007F7D52068296920F0F8008C
:100FD00040EAC10020600DE0C8F80090FFF708FE6D
:100FE000064604E0FFF704FE801B02281FD8206895
:100FF0008007F7D42878000722D5724E74486969B3
:101000006C3671B101210160FFF7F2FD074604E083
:10101000FFF7EEFDC01B022809D830688007F7D51E
:101020000EE0C0F80090FFF7E3FD074605E083E01F
:10103000FFF7DEFDC01B02287ED830688007F7D49A
:101040002878400768D5DFF87CA100270AF1380A24
:10105000DAF80000C0000BD4DAF8001041F080513B
:10106000CAF80010DAF80000012700F08050009064
:10107000584E3068C00510D4306840F4807030603D
:10108000FFF7B6FD009005E0FFF7B2FD0099401AAA
:10109000022851D83068C005F6D54A4EA86868368F
:1010A00001280FD00528306810D020F001003060F2
:1010B000306820F004003060A868B8B1FFF798FDF0
:1010C00000900FE0306840F00100F4E740F00400C9
:1010D0003060F7E7FFF78CFD0099411A41F2883044
:1010E000814264D830688007F4D50EE0FFF780FDB8
:1010F000009007E0FFF77CFD0099411A41F288302B
:10110000814254D830688007F4D42FB1DAF8001047
:1011100021F08051CAF80010A869C0B3DBF80010B4
:10112000C1F3810102294AD00228484607D0C8F8F5
:101130006000FFF75DFD00E039E005463AE0474614
:10114000C8F86000FFF754FD064604E0FFF750FDC5
:10115000801B02282BD820688001F7D4D5E907012D
:101160000843A96A1C4A490802EB01416A6A41EA3C
:101170008211084395F82C1040EA01611148001FC4
:10118000016001203866FFF733FD054605E014E0F5
:10119000FFF72EFD401B022809D820688001F7D5F3
:1011A0000BE000BFFFF724FD401B022802D90320FB
:1011B000BDE8F88F20688001F4D40020F8E7012012
:1011C000F6E70000083802400038024000004742BD
:1011D000800E4742007000400000FFFF10B5401E27
:1011E000B0F1807F01D3012010BD4FF0E024606199
:1011F0000F21601700F072FB0020A0610720206122
:10120000002010BD7047704770B590F83C20012A4F
:1012100019D0012400F83C4F0222427050F83C3CA7
:101220005A689D6822F070060A684968324325F0C2
:10123000800529435A6050F83C2C9160447000218D
:101240000170084670BD022070BD10B5040003D0C7
:1012500094F83D0010B107E0012010BD002084F893
:101260003C00204600F00CF8022084F83D00211DCF
:10127000206800F099FA012084F83D00002010BD9C
:1012800008B500680B49884212D10B48016841F04B
:10129000040101600068002200F0040000900121B8
:1012A0001E20FFF713FDBDE808401E20FFF700BD1C
:1012B00008BD000000080040403802400168CA68CC
:1012C00042F00102CA600068816801F00701062946
:1012D00003D0016841F0010101600020704770B542
:1012E000044690F83C00012817D0012584F83C50B2
:1012F000022084F83D002068826822F0770222F400
:101300007F4282600868502830D00DDC20284DD004
:1013100005DC98B310283BD148E0022070BD30288E
:1013200044D0402834D139E0602828D0702806D035
:10133000B0F5805F2CD0B0F5005F29D10AE0CB6812
:10134000D1E90121206800F093FA2068816841F01A
:10135000770109E0CB68D1E90121206800F088FA23
:101360002068816841F48041816011E0CA68496861
:10137000206800F08FFA5021206807E016E0CA6864
:101380004968206800F097FA6021206800F07AFA36
:1013900084F83D50002084F83C0070BDCA6849685C
:1013A000206800F077FA40212068EFE722680146C4
:1013B0001046EBE7704770B50446006801694FF0CE
:1013C0000005C943890715D4C168C943890711D4E9
:1013D000E91E01610120207720688069800720468E
:1013E00002D0FFF7E7FF04E000F098F8204600F095
:1013F00096F8257720680169C943490717D4C16861
:10140000C943490713D46FF004010161022020771A
:101410002068806910F4407F204602D0FFF7CAFFA1
:1014200004E000F07BF8204600F079F8257720688A
:101430000169C943090716D4C168C943090712D411
:101440006FF008010161042020772068C0698007DF
:10145000204602D0FFF7AEFF04E000F05FF8204620
:1014600000F05DF8257720680169C943C90617D4E3
:10147000C168C943C90613D46FF010010161082087
:1014800020772068C06910F4407F204602D0FFF723
:1014900091FF04E000F042F8204600F040F8257784
:1014A00020680169C943C90708D1C168C943C90790
:1014B00004D1891E0161204600F032F820680169DC
:1014C000C943090609D4C168C943090605D46FF0A8
:1014D000800101612046FFF795FE20680169C9433C
:1014E000490609D4C168C943490605D46FF04001D3
:1014F0000161204600F015F820680169C94389069A
:101500000BD4C168C943890607D46FF0200101617B
:101510002046BDE87040FFF776BE70BD704770474B
:1015200070477047FEE7000010B5174815490024C2
:1015300001600421C0E901144FF46021C0E90341B6
:101540004FF480114161047644768476C476047742
:101550004477FFF75CF90C48012168304461C0E929
:101560000641046044608460C460046101620E212D
:10157000416201466838FEF73BFFBDE81040024873
:10158000FFF716BA006400402800002070B586B04E
:1015900014216846FEF771FE1A480024016841F0E4
:1015A00004010160016801F004010591016841F046
:1015B00080010160016801F080010591016841F03E
:1015C00001010160016801F001010591016841F02C
:1015D0004001016000680C4E00F040004FF4C0452F
:1015E0000590002229463046FFF7FCFA01200095BD
:1015F000CDE90104694630460394FFF70DFA06B0C1
:1016000070BD0000303802400018024010B586B0AE
:1016100000241348009401940294039404940F4905
:101620000594016048F69F41C0E901144FF4FA6146
:10163000C0E903148461FFF708FE4FF48050009066
:1016400069460748FFF74BFE2020CDE9040404A9B2
:101650000348FFF7D9FD06B010BD000000080040A8
:1016600050000020FEE7704770477047FFF7C6BA8A
:1016700030B593B030216846FEF7FFFD14210CA869
:10168000FEF7FBFD19480025016841F0805101601B
:10169000006800F0805011901548016821F4404125
:1016A00041F4804101600068022400F44040119040
:1016B0000120039010200490009406940820CDE9A6
:1016C00007504820CDE9090403200B906846FFF736
:1016D000F7FB0CA90F2081E83100E002CDE90F05EE
:1016E00002210CA8FFF724FB13B030BD40380240A4
:1016F000007000401048016841F4700101600F481B
:10170000016841F0010101600C4A002108321160BA
:1017100002680B4B1A400260031D0A4A1A600268F5
:1017200022F48022026005480C300160024958060C
:10173000803908607047000088ED00E00038024002
:10174000FFFFF6FE1030002470B50122104D940307
:1017500021462846FFF746FA0E4B0F4A0F4910481C
:10176000FEF7E2FD08B1FEF7DEFD0D48FEF73BFF98
:101770000B48FEF738FF0328FAD1002221462846FD
:10178000FFF730FABDE870400648FFF714BE0000CE
:10179000001802400800002000000020B8000020CF
:1017A0002800002050000020F0B50268254C264D8E
:1017B000264E274F274B4FF0804CA04209D0604562
:1017C00007D0A84205D0B04203D0B84201D0984219
:1017D00004D122F0700E4A6842EA0E02A0421BD0E9
:1017E000604519D0A84217D0B04215D0B84213D0E6
:1017F000984211D0184DA8420ED0184DA8420BD0D7
:10180000174DA84208D0174DA84205D0164DA84242
:1018100002D0164DA84203D122F44075CA682A436B
:101820004D6922F080022A4302608A68C2620A6817
:101830008262A04201D0984201D10969016301216D
:101840004161F0BD0000014000040040000800407C
:10185000000C0040000401400040014000440140F1
:101860000048014000180040001C004000200040DB
:1018700010B5846842EA032224F47F440A432243D9
:10188000826010BD826822F070020A4342F00701B4
:101890008160704710B5036A046A24F00104046291
:1018A000846924F0F00444EA021423F00A020A4393
:1018B0008461026210BD10B5036A23F01003036255
:1018C0008369046A23F4704343EA023224F0A003DC
:1018D00043EA01118261016210BDFEE70907090EAA
:1018E000002804DB00F1E02080F80014704700F0CD
:1018F0000F0000F1E02080F8141D704702E008C8D6
:10190000121F08C1002AFAD170477047002001E079
:1019100001C1121F002AFBD170470000FFF776F9C2
:10192000FFF7A6FEFFF732FEFFF770FEFFF7FCFDA4
:101930001648FFF7C3FC154C4FF000084FF009099B
:10194000FF26134F14F16804FEF77EFC90FBF6F1BE
:1019500006FB1100C4F80C80C4F8088045462060DE
:10196000FEF772FC90FBF9F209FB1200206125756D
:10197000002507E0FEF768FC90FBF6F106FB11007E
:1019800078556D1C2069A842DED9F3E7500000208D
:10199000000000200000000000000000010203041D
:1019A00006070809C41900080000002028000000EC
:1019B000FC180008EC19000828000020C8040000EA
:1019C0000C190008000000000000000000000000EA
:1019D00000000000000000000100000010000000F6
:0C19E000000000000024F40000000000E3
:04000005080001AD41
:00000001FF
